{
  "contractName": "DieselPrice",
  "abi": [
    {
      "constant": true,
      "inputs": [],
      "name": "DieselPriceUSD",
      "outputs": [
        {
          "name": "",
          "type": "uint256"
        }
      ],
      "payable": false,
      "stateMutability": "view",
      "type": "function"
    },
    {
      "inputs": [],
      "payable": false,
      "stateMutability": "nonpayable",
      "type": "constructor"
    },
    {
      "anonymous": false,
      "inputs": [
        {
          "indexed": false,
          "name": "description",
          "type": "string"
        }
      ],
      "name": "newOraclizeQuery",
      "type": "event"
    },
    {
      "anonymous": false,
      "inputs": [
        {
          "indexed": false,
          "name": "price",
          "type": "string"
        }
      ],
      "name": "newDieselPrice",
      "type": "event"
    },
    {
      "constant": false,
      "inputs": [
        {
          "name": "myid",
          "type": "bytes32"
        },
        {
          "name": "result",
          "type": "string"
        }
      ],
      "name": "__callback",
      "outputs": [],
      "payable": false,
      "stateMutability": "nonpayable",
      "type": "function"
    },
    {
      "constant": false,
      "inputs": [
        {
          "name": "myid",
          "type": "bytes32"
        },
        {
          "name": "result",
          "type": "string"
        },
        {
          "name": "proof",
          "type": "bytes"
        }
      ],
      "name": "__callback",
      "outputs": [],
      "payable": false,
      "stateMutability": "nonpayable",
      "type": "function"
    },
    {
      "constant": false,
      "inputs": [],
      "name": "update",
      "outputs": [],
      "payable": true,
      "stateMutability": "payable",
      "type": "function"
    }
  ],
  "bytecode": "0x606060405234156200001057600080fd5b6200002e6200003464010000000002620002ae176401000000009004565b62000dac565b7f46cb989ef9cef13e930e3b7f286225a086e716a90d63e0b7da85d310a9db0c9a6040518080602001828103825260358152602001807f4f7261636c697a65207175657279207761732073656e742c207374616e64696e81526020017f6720627920666f722074686520616e737765722e2e000000000000000000000081525060400191505060405180910390a1620001996040805190810160405280600381526020017f55524c0000000000000000000000000000000000000000000000000000000000815250608060405190810160405280604581526020017f786d6c2868747470733a2f2f7777772e6675656c65636f6e6f6d792e676f762f81526020017f77732f726573742f6675656c707269636573292e6675656c5072696365732e6481526020017f696573656c0000000000000000000000000000000000000000000000000000008152506200019c6401000000000262000a10176401000000009004565b50565b60008060008060009054906101000a900473ffffffffffffffffffffffffffffffffffffffff1673ffffffffffffffffffffffffffffffffffffffff1614806200022557506000620002236000809054906101000a900473ffffffffffffffffffffffffffffffffffffffff16620007206401000000000262000f52176401000000009004565b145b156200024d576200024b60006200072b6401000000000262000f5d176401000000009004565b505b6000809054906101000a900473ffffffffffffffffffffffffffffffffffffffff1673ffffffffffffffffffffffffffffffffffffffff166338cc48316000604051602001526040518163ffffffff167c0100000000000000000000000000000000000000000000000000000000028152600401602060405180830381600087803b1515620002db57600080fd5b6102c65a03f11515620002ed57600080fd5b5050506040518051905073ffffffffffffffffffffffffffffffffffffffff16600160009054906101000a900473ffffffffffffffffffffffffffffffffffffffff1673ffffffffffffffffffffffffffffffffffffffff1614151562000439576000809054906101000a900473ffffffffffffffffffffffffffffffffffffffff1673ffffffffffffffffffffffffffffffffffffffff166338cc48316000604051602001526040518163ffffffff167c0100000000000000000000000000000000000000000000000000000000028152600401602060405180830381600087803b1515620003dc57600080fd5b6102c65a03f11515620003ee57600080fd5b50505060405180519050600160006101000a81548173ffffffffffffffffffffffffffffffffffffffff021916908373ffffffffffffffffffffffffffffffffffffffff1602179055505b600160009054906101000a900473ffffffffffffffffffffffffffffffffffffffff1673ffffffffffffffffffffffffffffffffffffffff1663524f3889856000604051602001526040518263ffffffff167c01000000000000000000000000000000000000000000000000000000000281526004018080602001828103825283818151815260200191508051906020019080838360005b83811015620004ee578082015181840152602081019050620004d1565b50505050905090810190601f1680156200051c5780820380516001836020036101000a031916815260200191505b5092505050602060405180830381600087803b15156200053b57600080fd5b6102c65a03f115156200054d57600080fd5b50505060405180519050905062030d403a02670de0b6b3a7640000018111156200057e576000600102915062000719565b600160009054906101000a900473ffffffffffffffffffffffffffffffffffffffff1673ffffffffffffffffffffffffffffffffffffffff1663adf59f9982600087876000604051602001526040518563ffffffff167c0100000000000000000000000000000000000000000000000000000000028152600401808481526020018060200180602001838103835285818151815260200191508051906020019080838360005b838110156200064157808201518184015260208101905062000624565b50505050905090810190601f1680156200066f5780820380516001836020036101000a031916815260200191505b50838103825284818151815260200191508051906020019080838360005b83811015620006aa5780820151818401526020810190506200068d565b50505050905090810190601f168015620006d85780820380516001836020036101000a031916815260200191505b50955050505050506020604051808303818588803b1515620006f957600080fd5b6125ee5a03f115156200070b57600080fd5b505050506040518051905091505b5092915050565b6000813b9050919050565b60006200074b620007526401000000000262000f6e176401000000009004565b9050919050565b60008062000788731d3b2638a7cc9f2cb3d298a3da7a90b67e5506ed620007206401000000000262000f52176401000000009004565b11156200084157731d3b2638a7cc9f2cb3d298a3da7a90b67e5506ed6000806101000a81548173ffffffffffffffffffffffffffffffffffffffff021916908373ffffffffffffffffffffffffffffffffffffffff160217905550620008376040805190810160405280600b81526020017f6574685f6d61696e6e657400000000000000000000000000000000000000000081525062000ce164010000000002620013fd176401000000009004565b6001905062000cde565b60006200087673c03a2615d5efaf5f49f60b7bb6583eaec212fdf1620007206401000000000262000f52176401000000009004565b11156200092f5773c03a2615d5efaf5f49f60b7bb6583eaec212fdf16000806101000a81548173ffffffffffffffffffffffffffffffffffffffff021916908373ffffffffffffffffffffffffffffffffffffffff160217905550620009256040805190810160405280600c81526020017f6574685f726f707374656e33000000000000000000000000000000000000000081525062000ce164010000000002620013fd176401000000009004565b6001905062000cde565b60006200096473b7a07bcf2ba2f2703b24c0691b5278999c59ac7e620007206401000000000262000f52176401000000009004565b111562000a1d5773b7a07bcf2ba2f2703b24c0691b5278999c59ac7e6000806101000a81548173ffffffffffffffffffffffffffffffffffffffff021916908373ffffffffffffffffffffffffffffffffffffffff16021790555062000a136040805190810160405280600981526020017f6574685f6b6f76616e000000000000000000000000000000000000000000000081525062000ce164010000000002620013fd176401000000009004565b6001905062000cde565b600062000a5273146500cfd35b22e4a392fe0adc06de1a1368ed48620007206401000000000262000f52176401000000009004565b111562000b0b5773146500cfd35b22e4a392fe0adc06de1a1368ed486000806101000a81548173ffffffffffffffffffffffffffffffffffffffff021916908373ffffffffffffffffffffffffffffffffffffffff16021790555062000b016040805190810160405280600b81526020017f6574685f72696e6b65627900000000000000000000000000000000000000000081525062000ce164010000000002620013fd176401000000009004565b6001905062000cde565b600062000b40736f485c8bf6fc43ea212e93bbf8ce046c7f1cb475620007206401000000000262000f52176401000000009004565b111562000ba557736f485c8bf6fc43ea212e93bbf8ce046c7f1cb4756000806101000a81548173ffffffffffffffffffffffffffffffffffffffff021916908373ffffffffffffffffffffffffffffffffffffffff1602179055506001905062000cde565b600062000bda7320e12a1f859b3feae5fb2a0a32c18f5a65555bbf620007206401000000000262000f52176401000000009004565b111562000c3f577320e12a1f859b3feae5fb2a0a32c18f5a65555bbf6000806101000a81548173ffffffffffffffffffffffffffffffffffffffff021916908373ffffffffffffffffffffffffffffffffffffffff1602179055506001905062000cde565b600062000c747351efaf4c8b3c9afbd5ab9f4bbc82784ab6ef8faa620007206401000000000262000f52176401000000009004565b111562000cd9577351efaf4c8b3c9afbd5ab9f4bbc82784ab6ef8faa6000806101000a81548173ffffffffffffffffffffffffffffffffffffffff021916908373ffffffffffffffffffffffffffffffffffffffff1602179055506001905062000cde565b600090505b90565b806002908051906020019062000cf992919062000cfd565b5050565b828054600181600116156101000203166002900490600052602060002090601f016020900481019282601f1062000d4057805160ff191683800117855562000d71565b8280016001018555821562000d71579182015b8281111562000d7057825182559160200191906001019062000d53565b5b50905062000d80919062000d84565b5090565b62000da991905b8082111562000da557600081600090555060010162000d8b565b5090565b90565b6114fc8062000dbc6000396000f300606060405260043610610062576000357c0100000000000000000000000000000000000000000000000000000000900463ffffffff16806327dc297e146100675780632b5f892f146100d157806338bbfa50146100fa578063a2e62045146101a7575b600080fd5b341561007257600080fd5b6100cf60048080356000191690602001909190803590602001908201803590602001908080601f016020809104026020016040519081016040528093929190818152602001838380828437820191505050505050919050506101b1565b005b34156100dc57600080fd5b6100e46102a3565b6040518082815260200191505060405180910390f35b341561010557600080fd5b6101a560048080356000191690602001909190803590602001908201803590602001908080601f0160208091040260200160405190810160405280939291908181526020018383808284378201915050505050509190803590602001908201803590602001908080601f016020809104026020016040519081016040528093929190818152602001838380828437820191505050505050919050506102a9565b005b6101af6102ae565b005b6101b9610400565b73ffffffffffffffffffffffffffffffffffffffff163373ffffffffffffffffffffffffffffffffffffffff161415156101f257600080fd5b7f3e269f6ec1f86596440d1d097f1ad40a9c21b0bcfce01738d0a4e4570caf611e816040518080602001828103825283818151815260200191508051906020019080838360005b83811015610254578082015181840152602081019050610239565b50505050905090810190601f1680156102815780820380516001836020036101000a031916815260200191505b509250505060405180910390a1610299816002610716565b6005819055505050565b60055481565b505050565b7f46cb989ef9cef13e930e3b7f286225a086e716a90d63e0b7da85d310a9db0c9a6040518080602001828103825260358152602001807f4f7261636c697a65207175657279207761732073656e742c207374616e64696e81526020017f6720627920666f722074686520616e737765722e2e000000000000000000000081525060400191505060405180910390a16103fd6040805190810160405280600381526020017f55524c0000000000000000000000000000000000000000000000000000000000815250608060405190810160405280604581526020017f786d6c2868747470733a2f2f7777772e6675656c65636f6e6f6d792e676f762f81526020017f77732f726573742f6675656c707269636573292e6675656c5072696365732e6481526020017f696573656c000000000000000000000000000000000000000000000000000000815250610a10565b50565b6000806000809054906101000a900473ffffffffffffffffffffffffffffffffffffffff1673ffffffffffffffffffffffffffffffffffffffff1614806104705750600061046e6000809054906101000a900473ffffffffffffffffffffffffffffffffffffffff16610f52565b145b156104815761047f6000610f5d565b505b6000809054906101000a900473ffffffffffffffffffffffffffffffffffffffff1673ffffffffffffffffffffffffffffffffffffffff166338cc48316000604051602001526040518163ffffffff167c0100000000000000000000000000000000000000000000000000000000028152600401602060405180830381600087803b151561050e57600080fd5b6102c65a03f1151561051f57600080fd5b5050506040518051905073ffffffffffffffffffffffffffffffffffffffff16600160009054906101000a900473ffffffffffffffffffffffffffffffffffffffff1673ffffffffffffffffffffffffffffffffffffffff16141515610668576000809054906101000a900473ffffffffffffffffffffffffffffffffffffffff1673ffffffffffffffffffffffffffffffffffffffff166338cc48316000604051602001526040518163ffffffff167c0100000000000000000000000000000000000000000000000000000000028152600401602060405180830381600087803b151561060c57600080fd5b6102c65a03f1151561061d57600080fd5b50505060405180519050600160006101000a81548173ffffffffffffffffffffffffffffffffffffffff021916908373ffffffffffffffffffffffffffffffffffffffff1602179055505b600160009054906101000a900473ffffffffffffffffffffffffffffffffffffffff1673ffffffffffffffffffffffffffffffffffffffff1663c281d19e6000604051602001526040518163ffffffff167c0100000000000000000000000000000000000000000000000000000000028152600401602060405180830381600087803b15156106f657600080fd5b6102c65a03f1151561070757600080fd5b50505060405180519050905090565b6000610720611417565b60008060008693506000925060009150600090505b83518110156109f15760307f010000000000000000000000000000000000000000000000000000000000000002848281518110151561077057fe5b9060200101517f010000000000000000000000000000000000000000000000000000000000000090047f0100000000000000000000000000000000000000000000000000000000000000027effffffffffffffffffffffffffffffffffffffffffffffffffffffffffffff191610158015610888575060397f010000000000000000000000000000000000000000000000000000000000000002848281518110151561081857fe5b9060200101517f010000000000000000000000000000000000000000000000000000000000000090047f0100000000000000000000000000000000000000000000000000000000000000027effffffffffffffffffffffffffffffffffffffffffffffffffffffffffffff191611155b156109395781156108ab5760008614156108a1576109f1565b8580600190039650505b600a83029250603084828151811015156108c157fe5b9060200101517f010000000000000000000000000000000000000000000000000000000000000090047f0100000000000000000000000000000000000000000000000000000000000000027f0100000000000000000000000000000000000000000000000000000000000000900403830192506109e4565b602e7f010000000000000000000000000000000000000000000000000000000000000002848281518110151561096b57fe5b9060200101517f010000000000000000000000000000000000000000000000000000000000000090047f0100000000000000000000000000000000000000000000000000000000000000027effffffffffffffffffffffffffffffffffffffffffffffffffffffffffffff191614156109e357600191505b5b8080600101915050610735565b6000861115610a035785600a0a830292505b8294505050505092915050565b60008060008060009054906101000a900473ffffffffffffffffffffffffffffffffffffffff1673ffffffffffffffffffffffffffffffffffffffff161480610a8257506000610a806000809054906101000a900473ffffffffffffffffffffffffffffffffffffffff16610f52565b145b15610a9357610a916000610f5d565b505b6000809054906101000a900473ffffffffffffffffffffffffffffffffffffffff1673ffffffffffffffffffffffffffffffffffffffff166338cc48316000604051602001526040518163ffffffff167c0100000000000000000000000000000000000000000000000000000000028152600401602060405180830381600087803b1515610b2057600080fd5b6102c65a03f11515610b3157600080fd5b5050506040518051905073ffffffffffffffffffffffffffffffffffffffff16600160009054906101000a900473ffffffffffffffffffffffffffffffffffffffff1673ffffffffffffffffffffffffffffffffffffffff16141515610c7a576000809054906101000a900473ffffffffffffffffffffffffffffffffffffffff1673ffffffffffffffffffffffffffffffffffffffff166338cc48316000604051602001526040518163ffffffff167c0100000000000000000000000000000000000000000000000000000000028152600401602060405180830381600087803b1515610c1e57600080fd5b6102c65a03f11515610c2f57600080fd5b50505060405180519050600160006101000a81548173ffffffffffffffffffffffffffffffffffffffff021916908373ffffffffffffffffffffffffffffffffffffffff1602179055505b600160009054906101000a900473ffffffffffffffffffffffffffffffffffffffff1673ffffffffffffffffffffffffffffffffffffffff1663524f3889856000604051602001526040518263ffffffff167c01000000000000000000000000000000000000000000000000000000000281526004018080602001828103825283818151815260200191508051906020019080838360005b83811015610d2d578082015181840152602081019050610d12565b50505050905090810190601f168015610d5a5780820380516001836020036101000a031916815260200191505b5092505050602060405180830381600087803b1515610d7857600080fd5b6102c65a03f11515610d8957600080fd5b50505060405180519050905062030d403a02670de0b6b3a764000001811115610db85760006001029150610f4b565b600160009054906101000a900473ffffffffffffffffffffffffffffffffffffffff1673ffffffffffffffffffffffffffffffffffffffff1663adf59f9982600087876000604051602001526040518563ffffffff167c0100000000000000000000000000000000000000000000000000000000028152600401808481526020018060200180602001838103835285818151815260200191508051906020019080838360005b83811015610e79578082015181840152602081019050610e5e565b50505050905090810190601f168015610ea65780820380516001836020036101000a031916815260200191505b50838103825284818151815260200191508051906020019080838360005b83811015610edf578082015181840152602081019050610ec4565b50505050905090810190601f168015610f0c5780820380516001836020036101000a031916815260200191505b50955050505050506020604051808303818588803b1515610f2c57600080fd5b6125ee5a03f11515610f3d57600080fd5b505050506040518051905091505b5092915050565b6000813b9050919050565b6000610f67610f6e565b9050919050565b600080610f8e731d3b2638a7cc9f2cb3d298a3da7a90b67e5506ed610f52565b111561102f57731d3b2638a7cc9f2cb3d298a3da7a90b67e5506ed6000806101000a81548173ffffffffffffffffffffffffffffffffffffffff021916908373ffffffffffffffffffffffffffffffffffffffff1602179055506110266040805190810160405280600b81526020017f6574685f6d61696e6e65740000000000000000000000000000000000000000008152506113fd565b600190506113fa565b600061104e73c03a2615d5efaf5f49f60b7bb6583eaec212fdf1610f52565b11156110ef5773c03a2615d5efaf5f49f60b7bb6583eaec212fdf16000806101000a81548173ffffffffffffffffffffffffffffffffffffffff021916908373ffffffffffffffffffffffffffffffffffffffff1602179055506110e66040805190810160405280600c81526020017f6574685f726f707374656e3300000000000000000000000000000000000000008152506113fd565b600190506113fa565b600061110e73b7a07bcf2ba2f2703b24c0691b5278999c59ac7e610f52565b11156111af5773b7a07bcf2ba2f2703b24c0691b5278999c59ac7e6000806101000a81548173ffffffffffffffffffffffffffffffffffffffff021916908373ffffffffffffffffffffffffffffffffffffffff1602179055506111a66040805190810160405280600981526020017f6574685f6b6f76616e00000000000000000000000000000000000000000000008152506113fd565b600190506113fa565b60006111ce73146500cfd35b22e4a392fe0adc06de1a1368ed48610f52565b111561126f5773146500cfd35b22e4a392fe0adc06de1a1368ed486000806101000a81548173ffffffffffffffffffffffffffffffffffffffff021916908373ffffffffffffffffffffffffffffffffffffffff1602179055506112666040805190810160405280600b81526020017f6574685f72696e6b6562790000000000000000000000000000000000000000008152506113fd565b600190506113fa565b600061128e736f485c8bf6fc43ea212e93bbf8ce046c7f1cb475610f52565b11156112f157736f485c8bf6fc43ea212e93bbf8ce046c7f1cb4756000806101000a81548173ffffffffffffffffffffffffffffffffffffffff021916908373ffffffffffffffffffffffffffffffffffffffff160217905550600190506113fa565b60006113107320e12a1f859b3feae5fb2a0a32c18f5a65555bbf610f52565b1115611373577320e12a1f859b3feae5fb2a0a32c18f5a65555bbf6000806101000a81548173ffffffffffffffffffffffffffffffffffffffff021916908373ffffffffffffffffffffffffffffffffffffffff160217905550600190506113fa565b60006113927351efaf4c8b3c9afbd5ab9f4bbc82784ab6ef8faa610f52565b11156113f5577351efaf4c8b3c9afbd5ab9f4bbc82784ab6ef8faa6000806101000a81548173ffffffffffffffffffffffffffffffffffffffff021916908373ffffffffffffffffffffffffffffffffffffffff160217905550600190506113fa565b600090505b90565b806002908051906020019061141392919061142b565b5050565b602060405190810160405280600081525090565b828054600181600116156101000203166002900490600052602060002090601f016020900481019282601f1061146c57805160ff191683800117855561149a565b8280016001018555821561149a579182015b8281111561149957825182559160200191906001019061147e565b5b5090506114a791906114ab565b5090565b6114cd91905b808211156114c95760008160009055506001016114b1565b5090565b905600a165627a7a7230582035f0053109fb1c4bf660a7777b11f1efdc54fec25c3fd22d9b5dd59d490c15bb0029",
  "source": "/*\n   Diesel Price Peg\n   This contract keeps in storage a reference\n   to the Diesel Price in USD\n*/\npragma solidity ^0.4.0;\n\nimport \"./oraclize/usingOraclize.sol\";\n\n\ncontract DieselPrice is usingOraclize {\n\n    uint public DieselPriceUSD;\n\n    event newOraclizeQuery(string description);\n    event newDieselPrice(string price);\n\n    function DieselPrice() {\n        update(); // first check at contract creation\n    }\n\n    function __callback(bytes32 myid, string result) {\n        if (msg.sender != oraclize_cbAddress()) throw;\n        newDieselPrice(result);\n        DieselPriceUSD = parseInt(result, 2); // let's save it as $ cents\n        // do something with the USD Diesel price\n    }\n\n    function update() payable {\n        newOraclizeQuery(\"Oraclize query was sent, standing by for the answer..\");\n        oraclize_query(\"URL\", \"xml(https://www.fueleconomy.gov/ws/rest/fuelprices).fuelPrices.diesel\");\n    }\n\n}",
  "sourcePath": "/Users/riccardopersiani/Oraclize/workspace/truffle-starter/contracts/DieselPrice.sol",
  "compiler": {
    "name": "solc",
    "version": "0.4.19+commit.c4cbbb05.Emscripten.clang"
  },
  "schemaVersion": "2.0.0",
  "updatedAt": "2018-06-28T11:11:00.936Z"
}